:03000000020800F3
:0C080000787FE4F6D8FD75810702000047
:100000001203F3C2A4759850758920758BFD758D08
:10001000FDD28E75A880D28E12031A7520001204AC
:1000200000753700753800753900753A0001D41233
:100030000400120400120329744212033F744A128E
:10004000033F745012033F743A12033FE53775F0D3
:100050000A8412033DE5F012033D748812032F74E5
:100060004312033F744E12033F744712033F743A26
:1000700012033FE53875F00A8412033DE5F01203E0
:100080003D74C012032F744E12033F744312033F9A
:10009000745012033F743A12033FE53975F00A8435
:1000A00012033DE5F012033D74C812032F744D1284
:1000B000033F744E12033F745312033F743A12030A
:1000C0003FE53A75F00A8412033DE5F012033D1254
:1000D000040080FE12040012041330011D120400FB
:1000E0001205971204001205611204001204001296
:1000F00005D38546331204007C3212032990036035
:100100007F101203101204001204001204003001C8
:1001100002801774C0712F9006C37F101203101253
:10012000040012040012040080FE20A0081203F351
:1001300020A002012F120400120400120400120475
:10014000001205D3120600E533B5460280DC854671
:100150003312061412065F12040012040012040087
:1001600012040080221203299006F57F101203105A
:100170001204001205971204001205611204001205
:0901800005D3854633212AE55020
:10018900B42332E551B431D4E552B431CF12032945
:100199009003D37F1012031012040012047B12047F
:1001A900001205971204001205611204001205D30A
:1001B900854633212AB42AA41203299003937F1078
:1001C900120310120400E551B43112E552B4350D91
:1001D9002002781202BB300770D2024193B4321266
:1001E900E552B4360D2003631202BB30075BD2031C
:1001F9004193B43312E552B4370D20044E1202BBB9
:10020900300746D2044193B43412E552B4380D2074
:1002190005391202BB300731D205419312032990E7
:1002290003A37F10120310D2A4120400120400C207
:10023900A412049F1204001205971204001205610A
:100249001204001205D3854633212A12032990038B
:10025900B37F10120310D2A4120400120400C2A426
:10026900120400120400D2A4120400120400C2A451
:100279001204C31204001205971204001205611238
:1002890004001205D3854633212A1203299003C39A
:100299007F101203101204001204E7120400120561
:1002A900971204001205611204001205D385463322
:1002B900212AC207E553B431050537D20722B432E2
:1002C900050538D20722B433050539D20722B434DB
:1002D90005053AD207221203299003E37F1012037E
:1002E90010D2A4120400120400C2A41204001205C0
:1002F9000B12040012059712040012056112040082
:0A0309001205D385463322740093D9
:1003130012033FA3DFF722743812032F740E120364
:100323002F740612032F740112032F2212034DF5AB
:1003330080C2A5C2A6D2A7C2A722243012034DF5BC
:1003430080D2A5C2A6D2A7C2A722C2A77580FFC228
:10035300A5D2A6C2A7D2A72087F9C2A722534D537D
:1003630020566F74696E6720537973742E20566F0D
:1003730074696E67206D6F64652020202020204300
:100383006F756E74696E67206D6F64652020202021
:10039300566F74696E67207265636569766564205C
:1003A300496E76616C696420766F746572202020D3
:1003B300416C726561647920646F6E652020202032
:1003C300566F74696E6720646F6E6520202020204D
:1003D30043616E646964617465207265712E2020C7
:1003E300496E76616C69642063616E64742E2020AB
:1003F3007531FA7530FAD530FDD531F722753205EE
:100403007531FF7530FFD530FDD531F7D532F12287
:100413007D647C64C2019006867E02120673740DAD
:1004230012067E740A12067EC29830981BC298E5A3
:1004330099B40A141203299006B47F101203101200
:100443000400120400D201227F64DFFEDCDC7C6442
:10045300DDD8C2011203299006C37F1012031012C4
:100463000400120400221203299006DA7F0B120300
:10047300101204001204002212052F9007057E516A
:10048300120673120400741A12067E740D12067E8D
:10049300740A12067E1204001204002212052F9021
:1004A30003A37E10120673120400741A12067E74DC
:1004B3000D12067E740A12067E1204001204002234
:1004C30012052F9003B37E10120673120400741AE0
:1004D30012067E740D12067E740A12067E12040042
:1004E3001204002212052F9003C37E10120673120A
:1004F3000400741A12067E740D12067E740A120624
:0E0503007E1204001204002212052F9003E362
:100511007E11120673120400741A12067E740D12F3
:10052100067E740A12067E1204001204002290064E
:10053100997E08120673742212067E7840790AE6C3
:1005410012067E08D9F9742212067E740D12067EF7
:10055100740A12067E3098FDC298E599B43EF622DF
:100561009006A97E0B120673740D12067E740A1290
:10057100067EC2983098FDC298E599B40AF6309883
:10058100FDC298E599B40AF63098FDC298E599B490
:100591000AF6120400229006867E02120673740D7A
:1005A10012067E740A12067E3098FDC298E599B44F
:1005B1000AF69006887E09120673740D12067E747F
:1005C1000A12067E3098FDC298E599B40AF6120423
:1005D10000229006917E08120673740D12067E7435
:1005E1000A12067E3098FDC298E599B43AF6784031
:1005F100C2983098FDC298E599F608B40AF422121F
:1006010003299006D37F07120310E54612033F1218
:100611000400229006A17E08120673E53312067EBD
:10062100740D12067E740A12067E3098FDC298E59A
:1006310099B40AF63098FDC298E599B431F678403C
:100641003098FDC298E599F608B40AF478503098CC
:10065100FDC298E599F608B40AF4120400221203C7
:100661002978507910E6B40A02C17212033F08D901
:01067100F494
:1006720022E49312067EA3DEF8222430F599309903
:10068200FDC29922415441542B434D47463D3141CD
:10069200542B43504D533F41542B434D47533D41FF
:1006A200542B434D47523D41542B434D47443D311A
:1006B2002C3420207965732067736D202020202040
:1006C2002020206E6F2067736D20202020202020A4
:1006D20020496E20426F783A4E6577206D657373BC
:1006E2006167656D657373616765207265636569CE
:1006F200766564696E76616C6964206D6573736199
:10070200676520312D424A502D4E6172656E7261CD
:10071200204D6F64692020322D436F6E672E2D525B
:100722006168756C2047616E6468692020332D4EC4
:1007320043502D5368617261642050617761722069
:1007420020342D4D4E532D52616A205468616B61E5
:040752007279652E25
:00000001FF
